:1000000075EF01F00000000000EF00F000000000BC
:0A0010000000000000000000F3D71C
:06001C00000000001200CC
:100022000F0E0C6E470E0D6E0D2EFED70C2EFCD74A
:06003200000000001200B6
:0A003800210E0D6E0D2EFED71200F2
:100042004EBE02D0819A01D0818A4EBC02D08198E4
:1000520001D081884EBA02D0819601D081864EB8F5
:1000620002D0819401D0818443B002D0818001D03A
:1000720081908182D2DF81924EB602D0819A01D0E4
:10008200818A4EB402D0819801D081884EB202D0CA
:10009200819601D081864EB002D0819401D08184B4
:1000A20043B002D0818001D081908182B6DF8192FB
:0C00B20043A002D0B5DF01D0BEDF120079
:0C00BE00060E0D6E0D2EFED70000120085
:1000CA00496A4B6A4C6A100E4D6E040E4C5C29E26A
:1000DA00F00E836E120E006E000E016E830E002467
:1000EA00E16E0F0E0120E26E4D1C006E00C0E6FFAD
:1000FA0090DF8FDF0F0E8314006E00C04AF00052AB
:10010A000AE04BC049F04A5204E04A324A9E492A60
:10011A00FAD7040E4C6E4D364D90040E4B264C2ADF
:08012A00D4D749C000F0120017
:0C013200439049C04EF084DF438012006F
:10013E00120E006E000E016E830E0024E16E0F0E85
:0A014E000120E26EFF0EE66E1200C3
:1001580093929390939493969398939A8192819083
:10016800819A81988196819458DF57DF56DF81867E
:10017800818481824FDF819250DF81824BDF8192BF
:100188004CDF818247DF819248DF8194818242DFA0
:10019800819243DF81823EDF81928196818A8182CA
:1001A80039DF81923ADF819A8184818233DF8192BB
:1001B800819481822FDF819230DF81822BDF8192CF
:1001C8008184818227DF819228DF8194818222DFE6
:1001D8008192818A81888186818481821BDF8192D4
:0601E8001CDF4380120041
:1001EE000900F5CFE6FF0006FBE10106F9E112007A
:1001FE000FD0800E446E19D0C00E446E16D0940EE1
:10020E00446E13D0D40E446E10D0800E446E0DD0BA
:10021E004450010AEEE04450020AEEE04450030A54
:10022E00EEE04450040AEEE0F0D74504006E445070
:10023E00002600C044F000C04EF0FCDE4390486A39
:10024E0048504624E96E000E4720EA6EEE520BE04F
:10025E0048504624E96E000E4720EA6EEECF49F074
:0A026E0061DF482AEDD7438012003B
:1002780028DF00C044F00F0E8314006E02E01BDF7D
:08028800FAD744C000F0120097
:100290000FD0800E446E19D0C00E446E16D0940E4E
:1002A000446E13D0D40E446E10D0800E446E0DD028
:1002B0004450010AEEE04450020AEEE04450030AC2
:1002C000EEE04450040AEEE0F0D74504006E4450DE
:1002D000002600C044F0438000C04EF0B2DE4390E0
:0A02E00046C04EF0AEDE438012006F
:1002EA0036EC03F034DF26DF010E446E0E0E456E47
:1002FA0021C046F0C8DFBBDF00C039F00050000A59
:10030A00FAE040D13A50010A01E1F5D7010E446EF4
:10031A00010E456E230E466E000E476E6BDF480EC9
:10032A00396E4250480AD8B43A2A69D13B50010A78
:10033A0001E1E1D7010E446E020E456E1F0E466EB4
:10034A00000E476E57DF520E396E4250520AD8B429
:10035A003B2A55D13C50010A01E1CDD7010E446E2A
:10036A00030E456E170E466E000E476E43DF4A0EA9
:10037A00396E42504A0AD8B43C2A41D13A50010A4D
:10038A0001E1B9D7010E446E040E456E150E466E94
:10039A00000E476E2FDF480E396E4250480AD8B415
:1003AA003A2A2DD13D50010A01E1A5D7020E446E29
:1003BA00010E456E190E466E000E476E1BDF460E85
:1003CA00396E4250460AD8B43D2A19D13E50010A24
:1003DA0001E191D7020E446E020E456E1D0E466E65
:1003EA00000E476E07DF470E396E4250470AD8B4EF
:1003FA003E2A05D13F50010A01E17DD7020E446E23
:10040A00030E456E1B0E466E000E476EF3DE410E5E
:10041A00396E4250410AD8B43F2AF1D04050010AFD
:10042A0001E169D7020E446E040E456E310E466E26
:10043A00000E476EDFDE4F0E396E42504F0AD8B4B7
:10044A00402ADDD03B50010A01E155D7030E446E24
:10045A00010E456E2F0E466E000E476ECBDE520E13
:10046A00396E4250520AD8B43B2AC9D04150010AC7
:10047A0001E141D7030E446E020E456E330E466EFD
:10048A00000E476EB7DE530E396E4250530AD8B487
:10049A00412AB5D03C50010A01E12DD7030E446E22
:1004AA00030E456E370E466E000E476EA3DE4A0EE9
:1004BA00396E42504A0AD8B43C2AA1D04050010AA7
:1004CA0001E119D7030E446E040E456E350E466ED1
:1004DA00000E476E8FDE4F0E396E42504F0AD8B467
:1004EA00402A8DD03E50010A01E105D7040E446E20
:1004FA00010E456E2D0E466E000E476E7BDE470ED0
:10050A00396E4250470AD8B43E2A79D03F50010A80
:10051A0001E1F1D6040E446E020E456E270E466EB8
:10052A00000E476E67DE410E396E4250410AD8B45A
:10053A003F2A65D03D50010A01E1DDD6040E446E22
:10054A00030E456E250E466E000E476E53DE460EAE
:10055A00396E4250460AD8B43D2A51D04150010A58
:10056A0001E1C9D6040E446E040E456E290E466E8C
:10057A00000E476E3FDE530E396E4250530AD8B40E
:10058A00412A3DD03950010AD8B4BCD63950020AA2
:10059A00D8B4CCD63950030AD8B4DCD63950040AB8
:1005AA00D8B4ECD63950050AD8B4FCD63950060A64
:1005BA00D8B40CD73950070AD8B41CD73950080A0E
:1005CA00D8B42CD73950090AD8B43CD739500A0ABA
:1005DA00D8B44CD739500B0AD8B45CD739500C0A66
:1005EA00D8B46CD739500D0AD8B47CD739500E0A12
:1005FA008DE039500F0A9EE03950100AAFE0000E24
:10060A002C1802E1000E2B1807E1010E2B6E000ECA
:10061A002C6E39C042F06FD62B6A2C6A42503918B8
:10062A0002E1214A222A010E4E6E06DD010E446EB7
:0E063A000E0E456E21C046F026DE5DD6FFD7BF
:10066C0010EE15F0240E006E010E016E480EF66EA3
:0E067C00060EF76E000EF86EF7EC00F012009E
:02064800480068
:02064A004A0064
:02064C00460066
:02064E00410069
:02065000470061
:02065200520054
:020654000000A4
:0206560048005A
:0206580046005A
:02065A0041005D
:02065C00530049
:02065E0000009A
:02066000470051
:02066200520044
:020664004F0045
:0206660053003F
:020668004F0041
:02066A004A0044
:020000040030CA
:0D000100220F0EFF0181FF0FC00FE00F4026
:00000001FF
